{
  "contractName": "KeccakLottery",
  "abi": [
    {
      "inputs": [],
      "stateMutability": "nonpayable",
      "type": "constructor"
    },
    {
      "inputs": [
        {
          "internalType": "uint256",
          "name": "",
          "type": "uint256"
        }
      ],
      "name": "lotteryHistory",
      "outputs": [
        {
          "internalType": "address payable",
          "name": "",
          "type": "address"
        }
      ],
      "stateMutability": "view",
      "type": "function"
    },
    {
      "inputs": [],
      "name": "lotteryId",
      "outputs": [
        {
          "internalType": "uint256",
          "name": "",
          "type": "uint256"
        }
      ],
      "stateMutability": "view",
      "type": "function"
    },
    {
      "inputs": [],
      "name": "owner",
      "outputs": [
        {
          "internalType": "address",
          "name": "",
          "type": "address"
        }
      ],
      "stateMutability": "view",
      "type": "function"
    },
    {
      "inputs": [
        {
          "internalType": "uint256",
          "name": "",
          "type": "uint256"
        }
      ],
      "name": "players",
      "outputs": [
        {
          "internalType": "address payable",
          "name": "",
          "type": "address"
        }
      ],
      "stateMutability": "view",
      "type": "function"
    },
    {
      "inputs": [],
      "name": "random",
      "outputs": [
        {
          "internalType": "uint256",
          "name": "",
          "type": "uint256"
        }
      ],
      "stateMutability": "view",
      "type": "function"
    },
    {
      "inputs": [],
      "name": "getWinners",
      "outputs": [
        {
          "internalType": "address[]",
          "name": "",
          "type": "address[]"
        }
      ],
      "stateMutability": "view",
      "type": "function"
    },
    {
      "inputs": [
        {
          "internalType": "uint256",
          "name": "lottery",
          "type": "uint256"
        }
      ],
      "name": "getWinnerByLottery",
      "outputs": [
        {
          "internalType": "address payable",
          "name": "",
          "type": "address"
        }
      ],
      "stateMutability": "view",
      "type": "function"
    },
    {
      "inputs": [],
      "name": "getBalance",
      "outputs": [
        {
          "internalType": "uint256",
          "name": "",
          "type": "uint256"
        }
      ],
      "stateMutability": "view",
      "type": "function"
    },
    {
      "inputs": [],
      "name": "getPlayers",
      "outputs": [
        {
          "internalType": "address payable[]",
          "name": "",
          "type": "address[]"
        }
      ],
      "stateMutability": "view",
      "type": "function"
    },
    {
      "inputs": [],
      "name": "enter",
      "outputs": [],
      "stateMutability": "payable",
      "type": "function"
    },
    {
      "inputs": [],
      "name": "getRandomNumber",
      "outputs": [],
      "stateMutability": "nonpayable",
      "type": "function"
    },
    {
      "inputs": [],
      "name": "payWinner",
      "outputs": [],
      "stateMutability": "nonpayable",
      "type": "function"
    }
  ],
  "bytecode": "0x608060405234801561001057600080fd5b50336000806101000a81548173ffffffffffffffffffffffffffffffffffffffff021916908373ffffffffffffffffffffffffffffffffffffffff1602179055506001600281905550610d45806100686000396000f3fe6080604052600436106100a75760003560e01c8063be71248a11610064578063be71248a146101d2578063dbdff2c1146101e9578063df15c37e14610200578063e580f47b1461022b578063e97dcb6214610256578063f71d96cb14610260576100a7565b806312065fe0146100ac578063281d098d146100d75780635ec01e4d146101145780636d6fe2301461013f5780638b5b9ccc1461017c5780638da5cb5b146101a7575b600080fd5b3480156100b857600080fd5b506100c161029d565b6040516100ce9190610873565b60405180910390f35b3480156100e357600080fd5b506100fe60048036038101906100f991906108bf565b6102a5565b60405161010b919061092d565b60405180910390f35b34801561012057600080fd5b506101296102e2565b6040516101369190610873565b60405180910390f35b34801561014b57600080fd5b50610166600480360381019061016191906108bf565b6102e8565b604051610173919061092d565b60405180910390f35b34801561018857600080fd5b5061019161031b565b60405161019e9190610a06565b60405180910390f35b3480156101b357600080fd5b506101bc6103a9565b6040516101c99190610a49565b60405180910390f35b3480156101de57600080fd5b506101e76103cd565b005b3480156101f557600080fd5b506101fe6105ce565b005b34801561020c57600080fd5b50610215610622565b6040516102229190610b22565b60405180910390f35b34801561023757600080fd5b506102406106f5565b60405161024d9190610873565b60405180910390f35b61025e6106fb565b005b34801561026c57600080fd5b50610287600480360381019061028291906108bf565b610774565b604051610294919061092d565b60405180910390f35b600047905090565b60006003600083815260200190815260200160002060009054906101000a900473ffffffffffffffffffffffffffffffffffffffff169050919050565b60045481565b60036020528060005260406000206000915054906101000a900473ffffffffffffffffffffffffffffffffffffffff1681565b6060600180548060200260200160405190810160405280929190818152602001828054801561039f57602002820191906000526020600020905b8160009054906101000a900473ffffffffffffffffffffffffffffffffffffffff1673ffffffffffffffffffffffffffffffffffffffff1681526020019060010190808311610355575b5050505050905090565b60008054906101000a900473ffffffffffffffffffffffffffffffffffffffff1681565b60008054906101000a900473ffffffffffffffffffffffffffffffffffffffff1673ffffffffffffffffffffffffffffffffffffffff163373ffffffffffffffffffffffffffffffffffffffff161461042557600080fd5b600060018054905060045461043a9190610b73565b9050600181815481106104505761044f610ba4565b5b9060005260206000200160009054906101000a900473ffffffffffffffffffffffffffffffffffffffff1673ffffffffffffffffffffffffffffffffffffffff166108fc479081150290604051600060405180830381858888f193505050501580156104c0573d6000803e3d6000fd5b50600181815481106104d5576104d4610ba4565b5b9060005260206000200160009054906101000a900473ffffffffffffffffffffffffffffffffffffffff1660036000600254815260200190815260200160002060006101000a81548173ffffffffffffffffffffffffffffffffffffffff021916908373ffffffffffffffffffffffffffffffffffffffff1602179055506002600081548092919061056690610c02565b9190505550600067ffffffffffffffff81111561058657610585610c4b565b5b6040519080825280602002602001820160405280156105b45781602001602082028036833780820191505090505b50600190805190602001906105ca9291906107b3565b5050565b60008054906101000a900473ffffffffffffffffffffffffffffffffffffffff1642604051602001610601929190610ce3565b6040516020818303038152906040528051906020012060001c600481905550565b6060600060025467ffffffffffffffff81111561064257610641610c4b565b5b6040519080825280602002602001820160405280156106705781602001602082028036833780820191505090505b5090506000600190505b6002548110156106ed5761068d816102a5565b8282815181106106a05761069f610ba4565b5b602002602001019073ffffffffffffffffffffffffffffffffffffffff16908173ffffffffffffffffffffffffffffffffffffffff168152505080806106e590610c02565b91505061067a565b508091505090565b60025481565b662386f26fc1000034101561070f57600080fd5b6001339080600181540180825580915050600190039060005260206000200160009091909190916101000a81548173ffffffffffffffffffffffffffffffffffffffff021916908373ffffffffffffffffffffffffffffffffffffffff160217905550565b6001818154811061078457600080fd5b906000526020600020016000915054906101000a900473ffffffffffffffffffffffffffffffffffffffff1681565b82805482825590600052602060002090810192821561082c579160200282015b8281111561082b5782518260006101000a81548173ffffffffffffffffffffffffffffffffffffffff021916908373ffffffffffffffffffffffffffffffffffffffff160217905550916020019190600101906107d3565b5b509050610839919061083d565b5090565b5b8082111561085657600081600090555060010161083e565b5090565b6000819050919050565b61086d8161085a565b82525050565b60006020820190506108886000830184610864565b92915050565b600080fd5b61089c8161085a565b81146108a757600080fd5b50565b6000813590506108b981610893565b92915050565b6000602082840312156108d5576108d461088e565b5b60006108e3848285016108aa565b91505092915050565b600073ffffffffffffffffffffffffffffffffffffffff82169050919050565b6000610917826108ec565b9050919050565b6109278161090c565b82525050565b6000602082019050610942600083018461091e565b92915050565b600081519050919050565b600082825260208201905092915050565b6000819050602082019050919050565b61097d8161090c565b82525050565b600061098f8383610974565b60208301905092915050565b6000602082019050919050565b60006109b382610948565b6109bd8185610953565b93506109c883610964565b8060005b838110156109f95781516109e08882610983565b97506109eb8361099b565b9250506001810190506109cc565b5085935050505092915050565b60006020820190508181036000830152610a2081846109a8565b905092915050565b6000610a33826108ec565b9050919050565b610a4381610a28565b82525050565b6000602082019050610a5e6000830184610a3a565b92915050565b600081519050919050565b600082825260208201905092915050565b6000819050602082019050919050565b610a9981610a28565b82525050565b6000610aab8383610a90565b60208301905092915050565b6000602082019050919050565b6000610acf82610a64565b610ad98185610a6f565b9350610ae483610a80565b8060005b83811015610b15578151610afc8882610a9f565b9750610b0783610ab7565b925050600181019050610ae8565b5085935050505092915050565b60006020820190508181036000830152610b3c8184610ac4565b905092915050565b7f4e487b7100000000000000000000000000000000000000000000000000000000600052601260045260246000fd5b6000610b7e8261085a565b9150610b898361085a565b925082610b9957610b98610b44565b5b828206905092915050565b7f4e487b7100000000000000000000000000000000000000000000000000000000600052603260045260246000fd5b7f4e487b7100000000000000000000000000000000000000000000000000000000600052601160045260246000fd5b6000610c0d8261085a565b91507fffffffffffffffffffffffffffffffffffffffffffffffffffffffffffffffff821415610c4057610c3f610bd3565b5b600182019050919050565b7f4e487b7100000000000000000000000000000000000000000000000000000000600052604160045260246000fd5b60008160601b9050919050565b6000610c9282610c7a565b9050919050565b6000610ca482610c87565b9050919050565b610cbc610cb782610a28565b610c99565b82525050565b6000819050919050565b610cdd610cd88261085a565b610cc2565b82525050565b6000610cef8285610cab565b601482019150610cff8284610ccc565b602082019150819050939250505056fea264697066735822122050c3c9cd2a4bd366c570e33912270d0401a56150a4dd639baa34e7b99406184764736f6c634300080b0033",
  "immutableReferences": {},
  "source": "// SPDX-License-Identifier: MIT\r\n// Reference: https://github.com/jspruance/block-explorer-tutorials/blob/main/smart-contracts/solidity/Lottery.sol lines 4-91\r\n// Reference: https://www.youtube.com/watch?v=HR679xTt8tg lines 4-91\r\npragma solidity ^0.8.11;\r\n// This defines solidity version we are using\r\n\r\ncontract KeccakLottery{\r\n    // Owner: Address of person who deployed contract\r\n    address public owner;\r\n\r\n    // To create an array specify types of objects in the array\r\n    // payable is used for any addresses/functions that can receive ETH\r\n    address payable[] public players;\r\n    uint public lotteryId;\r\n    mapping (uint => address payable) public lotteryHistory;\r\n    uint public random;\r\n\r\n    // Constructor doesn't take any arguments\r\n    // Setting the address of the person who deployed the contract to the owner state variable\r\n    constructor(){\r\n        owner = msg.sender;\r\n        lotteryId = 1;\r\n    }\r\n\r\n    function getWinners() public view returns (address[] memory){\r\n        address[] memory ret = new address[](lotteryId);\r\n        for (uint i = 1; i < lotteryId; i++)\r\n            ret[i] = getWinnerByLottery(i);\r\n        return ret;\r\n    }\r\n\r\n    function getWinnerByLottery(uint lottery) public view returns (address payable){\r\n        return lotteryHistory[lottery];\r\n    }\r\n\r\n    function getBalance() public view returns (uint){\r\n        return address(this).balance;\r\n    }\r\n\r\n    // memory indicates that this is just stored temporarily for the function life cycle\r\n    function getPlayers() public view returns (address payable[] memory){\r\n        return players;\r\n    }\r\n\r\n    // To enter someone into the lottery, add their address into the players array\r\n    function enter() public payable{\r\n        require(msg.value >= .01 ether);\r\n\r\n        players.push(payable(msg.sender));\r\n    }\r\n\r\n    // No native number random generator in solidity\r\n    // Blockchain is deterministic (If you know state of system at any given point in time, future states are predictable)\r\n    // Blockchain is also transparent\r\n    // Use pseudo random number generator (not 100% safe) using a hashing function \r\n\r\n    // Hashing algorithm is native to solidity\r\n    function getRandomNumber() public{\r\n        // Hashing the owner address and the current time\r\n        // abi.encode concatenates them together\r\n        random = uint(keccak256(abi.encodePacked(owner, block.timestamp)));\r\n    }\r\n\r\n    // we want to get an index from the players array\r\n    // Restrict use of this function to the owner of the contract\r\n    function payWinner() public onlyOwner{\r\n        // We can also create a custom modifier\r\n        //require(msg.sender == owner);\r\n        \r\n        // Gives us an integer between 0 & players.length-1\r\n        uint index = random % players.length;\r\n\r\n        // Take the winner & transfer to that account balance of the current smart contract\r\n        players[index].transfer(address(this).balance);\r\n\r\n        // Update the history\r\n        lotteryHistory[lotteryId] = players[index];\r\n\r\n        // re entry attack (drain smart contract of its funds)\r\n        // first do transfer then update state\r\n        lotteryId++;\r\n        // reset the state of the contract (create a new array with length 0)\r\n        players = new address payable[](0);\r\n    }\r\n\r\n    modifier onlyOwner(){\r\n        require(msg.sender == owner);\r\n        // Run other code after the require statement\r\n        _;\r\n    }\r\n}",
  "sourcePath": "C:\\Users\\Danie\\Documents\\School\\MCS\\Year 3\\Semester 2\\FYP\\Lottery\\lottery\\contracts\\keccak.sol",
  "compiler": {
    "name": "solc",
    "version": "0.8.11+commit.d7f03943.Emscripten.clang"
  },
  "schemaVersion": "3.4.13",
  "updatedAt": "2023-04-11T18:55:37.640Z",
  "devdoc": {
    "kind": "dev",
    "methods": {},
    "version": 1
  },
  "userdoc": {
    "kind": "user",
    "methods": {},
    "version": 1
  }
}