{
  "contractName": "VRFv2Consumer",
  "abi": [
    {
      "inputs": [
        {
          "internalType": "uint64",
          "name": "subscriptionId",
          "type": "uint64"
        }
      ],
      "stateMutability": "nonpayable",
      "type": "constructor"
    },
    {
      "inputs": [
        {
          "internalType": "address",
          "name": "have",
          "type": "address"
        },
        {
          "internalType": "address",
          "name": "want",
          "type": "address"
        }
      ],
      "name": "OnlyCoordinatorCanFulfill",
      "type": "error"
    },
    {
      "anonymous": false,
      "inputs": [
        {
          "indexed": false,
          "internalType": "uint256",
          "name": "requestId",
          "type": "uint256"
        },
        {
          "indexed": false,
          "internalType": "uint256[]",
          "name": "randomWords",
          "type": "uint256[]"
        }
      ],
      "name": "RequestFulfilled",
      "type": "event"
    },
    {
      "anonymous": false,
      "inputs": [
        {
          "indexed": false,
          "internalType": "uint256",
          "name": "requestId",
          "type": "uint256"
        },
        {
          "indexed": false,
          "internalType": "uint32",
          "name": "numWords",
          "type": "uint32"
        }
      ],
      "name": "RequestSent",
      "type": "event"
    },
    {
      "inputs": [],
      "name": "lastRequestId",
      "outputs": [
        {
          "internalType": "uint256",
          "name": "",
          "type": "uint256"
        }
      ],
      "stateMutability": "view",
      "type": "function"
    },
    {
      "inputs": [
        {
          "internalType": "uint256",
          "name": "",
          "type": "uint256"
        }
      ],
      "name": "lotteryHistory",
      "outputs": [
        {
          "internalType": "address payable",
          "name": "",
          "type": "address"
        }
      ],
      "stateMutability": "view",
      "type": "function"
    },
    {
      "inputs": [],
      "name": "lotteryId",
      "outputs": [
        {
          "internalType": "uint256",
          "name": "",
          "type": "uint256"
        }
      ],
      "stateMutability": "view",
      "type": "function"
    },
    {
      "inputs": [],
      "name": "owner",
      "outputs": [
        {
          "internalType": "address",
          "name": "",
          "type": "address"
        }
      ],
      "stateMutability": "view",
      "type": "function"
    },
    {
      "inputs": [
        {
          "internalType": "uint256",
          "name": "",
          "type": "uint256"
        }
      ],
      "name": "players",
      "outputs": [
        {
          "internalType": "address payable",
          "name": "",
          "type": "address"
        }
      ],
      "stateMutability": "view",
      "type": "function"
    },
    {
      "inputs": [],
      "name": "randomResult",
      "outputs": [
        {
          "internalType": "uint256",
          "name": "",
          "type": "uint256"
        }
      ],
      "stateMutability": "view",
      "type": "function"
    },
    {
      "inputs": [
        {
          "internalType": "uint256",
          "name": "requestId",
          "type": "uint256"
        },
        {
          "internalType": "uint256[]",
          "name": "randomWords",
          "type": "uint256[]"
        }
      ],
      "name": "rawFulfillRandomWords",
      "outputs": [],
      "stateMutability": "nonpayable",
      "type": "function"
    },
    {
      "inputs": [
        {
          "internalType": "uint256",
          "name": "",
          "type": "uint256"
        }
      ],
      "name": "requestIds",
      "outputs": [
        {
          "internalType": "uint256",
          "name": "",
          "type": "uint256"
        }
      ],
      "stateMutability": "view",
      "type": "function"
    },
    {
      "inputs": [
        {
          "internalType": "uint256",
          "name": "",
          "type": "uint256"
        }
      ],
      "name": "s_requests",
      "outputs": [
        {
          "internalType": "bool",
          "name": "fulfilled",
          "type": "bool"
        },
        {
          "internalType": "bool",
          "name": "exists",
          "type": "bool"
        }
      ],
      "stateMutability": "view",
      "type": "function"
    },
    {
      "inputs": [],
      "name": "requestRandomWords",
      "outputs": [
        {
          "internalType": "uint256",
          "name": "requestId",
          "type": "uint256"
        }
      ],
      "stateMutability": "nonpayable",
      "type": "function"
    },
    {
      "inputs": [
        {
          "internalType": "uint256",
          "name": "_requestId",
          "type": "uint256"
        }
      ],
      "name": "getRequestStatus",
      "outputs": [
        {
          "internalType": "bool",
          "name": "fulfilled",
          "type": "bool"
        },
        {
          "internalType": "uint256[]",
          "name": "randomWords",
          "type": "uint256[]"
        }
      ],
      "stateMutability": "view",
      "type": "function"
    },
    {
      "inputs": [],
      "name": "getBalance",
      "outputs": [
        {
          "internalType": "uint256",
          "name": "",
          "type": "uint256"
        }
      ],
      "stateMutability": "view",
      "type": "function"
    },
    {
      "inputs": [],
      "name": "getPlayers",
      "outputs": [
        {
          "internalType": "address payable[]",
          "name": "",
          "type": "address[]"
        }
      ],
      "stateMutability": "view",
      "type": "function"
    },
    {
      "inputs": [],
      "name": "enter",
      "outputs": [],
      "stateMutability": "payable",
      "type": "function"
    },
    {
      "inputs": [],
      "name": "payWinner",
      "outputs": [],
      "stateMutability": "nonpayable",
      "type": "function"
    }
  ],
  "bytecode": "0x60a06040527f79d3d8832d904592c0bf9818b621522c988bb8b0c05cdc3b15aea1b6e8db0c1560001b600955620186a0600a60006101000a81548163ffffffff021916908363ffffffff1602179055506003600a60046101000a81548161ffff021916908361ffff1602179055506001600a60066101000a81548163ffffffff021916908363ffffffff1602179055503480156200009c57600080fd5b50604051620019e5380380620019e58339818101604052810190620000c291906200021b565b732ca8e0c643bde4c2e08ab1fa0da3401adad7734d8073ffffffffffffffffffffffffffffffffffffffff1660808173ffffffffffffffffffffffffffffffffffffffff168152505050732ca8e0c643bde4c2e08ab1fa0da3401adad7734d600660006101000a81548173ffffffffffffffffffffffffffffffffffffffff021916908373ffffffffffffffffffffffffffffffffffffffff16021790555080600660146101000a81548167ffffffffffffffff021916908367ffffffffffffffff160217905550336000806101000a81548173ffffffffffffffffffffffffffffffffffffffff021916908373ffffffffffffffffffffffffffffffffffffffff160217905550506200024d565b600080fd5b600067ffffffffffffffff82169050919050565b620001f581620001d6565b81146200020157600080fd5b50565b6000815190506200021581620001ea565b92915050565b600060208284031215620002345762000233620001d1565b5b6000620002448482850162000204565b91505092915050565b60805161177562000270600039600081816103a101526103f501526117756000f3fe6080604052600436106100e85760003560e01c8063a168fa891161008a578063e580f47b11610059578063e580f47b146102fa578063e97dcb6214610325578063f71d96cb1461032f578063fc2a88c31461036c576100e8565b8063a168fa891461023c578063be71248a1461027a578063d8a4676f14610291578063e0c86289146102cf576100e8565b80636d6fe230116100c65780636d6fe2301461016c5780638796ba8c146101a95780638b5b9ccc146101e65780638da5cb5b14610211576100e8565b806312065fe0146100ed5780631fe543e31461011857806342619f6614610141575b600080fd5b3480156100f957600080fd5b50610102610397565b60405161010f9190610eb3565b60405180910390f35b34801561012457600080fd5b5061013f600480360381019061013a9190611067565b61039f565b005b34801561014d57600080fd5b5061015661045f565b6040516101639190610eb3565b60405180910390f35b34801561017857600080fd5b50610193600480360381019061018e91906110c3565b610465565b6040516101a09190611131565b60405180910390f35b3480156101b557600080fd5b506101d060048036038101906101cb91906110c3565b610498565b6040516101dd9190610eb3565b60405180910390f35b3480156101f257600080fd5b506101fb6104bc565b604051610208919061120a565b60405180910390f35b34801561021d57600080fd5b5061022661054a565b604051610233919061124d565b60405180910390f35b34801561024857600080fd5b50610263600480360381019061025e91906110c3565b61056e565b604051610271929190611283565b60405180910390f35b34801561028657600080fd5b5061028f6105ac565b005b34801561029d57600080fd5b506102b860048036038101906102b391906110c3565b6107f2565b6040516102c692919061136a565b60405180910390f35b3480156102db57600080fd5b506102e461091d565b6040516102f19190610eb3565b60405180910390f35b34801561030657600080fd5b5061030f610bc7565b60405161031c9190610eb3565b60405180910390f35b61032d610bcd565b005b34801561033b57600080fd5b50610356600480360381019061035191906110c3565b610c45565b6040516103639190611131565b60405180910390f35b34801561037857600080fd5b50610381610c84565b60405161038e9190610eb3565b60405180910390f35b600047905090565b7f000000000000000000000000000000000000000000000000000000000000000073ffffffffffffffffffffffffffffffffffffffff163373ffffffffffffffffffffffffffffffffffffffff161461045157337f00000000000000000000000000000000000000000000000000000000000000006040517f1cf993f400000000000000000000000000000000000000000000000000000000815260040161044892919061139a565b60405180910390fd5b61045b8282610c8a565b5050565b60045481565b60026020528060005260406000206000915054906101000a900473ffffffffffffffffffffffffffffffffffffffff1681565b600781815481106104a857600080fd5b906000526020600020016000915090505481565b6060600180548060200260200160405190810160405280929190818152602001828054801561054057602002820191906000526020600020905b8160009054906101000a900473ffffffffffffffffffffffffffffffffffffffff1673ffffffffffffffffffffffffffffffffffffffff16815260200190600101908083116104f6575b5050505050905090565b60008054906101000a900473ffffffffffffffffffffffffffffffffffffffff1681565b60056020528060005260406000206000915090508060000160009054906101000a900460ff16908060000160019054906101000a900460ff16905082565b60008054906101000a900473ffffffffffffffffffffffffffffffffffffffff1673ffffffffffffffffffffffffffffffffffffffff163373ffffffffffffffffffffffffffffffffffffffff161461060457600080fd5b600060045411610649576040517f08c379a000000000000000000000000000000000000000000000000000000000815260040161064090611446565b60405180910390fd5b600060018054905060045461065e9190611495565b905060018181548110610674576106736114c6565b5b9060005260206000200160009054906101000a900473ffffffffffffffffffffffffffffffffffffffff1673ffffffffffffffffffffffffffffffffffffffff166108fc479081150290604051600060405180830381858888f193505050501580156106e4573d6000803e3d6000fd5b50600181815481106106f9576106f86114c6565b5b9060005260206000200160009054906101000a900473ffffffffffffffffffffffffffffffffffffffff1660026000600354815260200190815260200160002060006101000a81548173ffffffffffffffffffffffffffffffffffffffff021916908373ffffffffffffffffffffffffffffffffffffffff1602179055506003600081548092919061078a90611524565b9190505550600067ffffffffffffffff8111156107aa576107a9610f24565b5b6040519080825280602002602001820160405280156107d85781602001602082028036833780820191505090505b50600190805190602001906107ee929190610da6565b5050565b600060606005600084815260200190815260200160002060000160019054906101000a900460ff16610859576040517f08c379a0000000000000000000000000000000000000000000000000000000008152600401610850906115b9565b60405180910390fd5b6000600560008581526020019081526020016000206040518060600160405290816000820160009054906101000a900460ff161515151581526020016000820160019054906101000a900460ff16151515158152602001600182018054806020026020016040519081016040528092919081815260200182805480156108fe57602002820191906000526020600020905b8154815260200190600101908083116108ea575b5050505050815250509050806000015181604001519250925050915091565b60008060009054906101000a900473ffffffffffffffffffffffffffffffffffffffff1673ffffffffffffffffffffffffffffffffffffffff163373ffffffffffffffffffffffffffffffffffffffff161461097857600080fd5b600660009054906101000a900473ffffffffffffffffffffffffffffffffffffffff1673ffffffffffffffffffffffffffffffffffffffff16635d3b1d30600954600660149054906101000a900467ffffffffffffffff16600a60049054906101000a900461ffff16600a60009054906101000a900463ffffffff16600a60069054906101000a900463ffffffff166040518663ffffffff1660e01b8152600401610a27959493929190611651565b6020604051808303816000875af1158015610a46573d6000803e3d6000fd5b505050506040513d601f19601f82011682018060405250810190610a6a91906116b9565b90506040518060600160405280600015158152602001600115158152602001600067ffffffffffffffff811115610aa457610aa3610f24565b5b604051908082528060200260200182016040528015610ad25781602001602082028036833780820191505090505b508152506005600083815260200190815260200160002060008201518160000160006101000a81548160ff02191690831515021790555060208201518160000160016101000a81548160ff0219169083151502179055506040820151816001019080519060200190610b45929190610e30565b509050506007819080600181540180825580915050600190039060005260206000200160009091909190915055806008819055507fcc58b13ad3eab50626c6a6300b1d139cd6ebb1688a7cced9461c2f7e762665ee81600a60069054906101000a900463ffffffff16604051610bbc9291906116e6565b60405180910390a190565b60035481565b662386f26fc100003411610be057600080fd5b6001339080600181540180825580915050600190039060005260206000200160009091909190916101000a81548173ffffffffffffffffffffffffffffffffffffffff021916908373ffffffffffffffffffffffffffffffffffffffff160217905550565b60018181548110610c5557600080fd5b906000526020600020016000915054906101000a900473ffffffffffffffffffffffffffffffffffffffff1681565b60085481565b6005600083815260200190815260200160002060000160019054906101000a900460ff16610ced576040517f08c379a0000000000000000000000000000000000000000000000000000000008152600401610ce4906115b9565b60405180910390fd5b60016005600084815260200190815260200160002060000160006101000a81548160ff02191690831515021790555080600560008481526020019081526020016000206001019080519060200190610d46929190610e30565b5080600081518110610d5b57610d5a6114c6565b5b60200260200101516004819055507ffe2e2d779dba245964d4e3ef9b994be63856fd568bf7d3ca9e224755cb1bd54d8282604051610d9a92919061170f565b60405180910390a15050565b828054828255906000526020600020908101928215610e1f579160200282015b82811115610e1e5782518260006101000a81548173ffffffffffffffffffffffffffffffffffffffff021916908373ffffffffffffffffffffffffffffffffffffffff16021790555091602001919060010190610dc6565b5b509050610e2c9190610e7d565b5090565b828054828255906000526020600020908101928215610e6c579160200282015b82811115610e6b578251825591602001919060010190610e50565b5b509050610e799190610e7d565b5090565b5b80821115610e96576000816000905550600101610e7e565b5090565b6000819050919050565b610ead81610e9a565b82525050565b6000602082019050610ec86000830184610ea4565b92915050565b6000604051905090565b600080fd5b600080fd5b610eeb81610e9a565b8114610ef657600080fd5b50565b600081359050610f0881610ee2565b92915050565b600080fd5b6000601f19601f8301169050919050565b7f4e487b7100000000000000000000000000000000000000000000000000000000600052604160045260246000fd5b610f5c82610f13565b810181811067ffffffffffffffff82111715610f7b57610f7a610f24565b5b80604052505050565b6000610f8e610ece565b9050610f9a8282610f53565b919050565b600067ffffffffffffffff821115610fba57610fb9610f24565b5b602082029050602081019050919050565b600080fd5b6000610fe3610fde84610f9f565b610f84565b9050808382526020820190506020840283018581111561100657611005610fcb565b5b835b8181101561102f578061101b8882610ef9565b845260208401935050602081019050611008565b5050509392505050565b600082601f83011261104e5761104d610f0e565b5b813561105e848260208601610fd0565b91505092915050565b6000806040838503121561107e5761107d610ed8565b5b600061108c85828601610ef9565b925050602083013567ffffffffffffffff8111156110ad576110ac610edd565b5b6110b985828601611039565b9150509250929050565b6000602082840312156110d9576110d8610ed8565b5b60006110e784828501610ef9565b91505092915050565b600073ffffffffffffffffffffffffffffffffffffffff82169050919050565b600061111b826110f0565b9050919050565b61112b81611110565b82525050565b60006020820190506111466000830184611122565b92915050565b600081519050919050565b600082825260208201905092915050565b6000819050602082019050919050565b61118181611110565b82525050565b60006111938383611178565b60208301905092915050565b6000602082019050919050565b60006111b78261114c565b6111c18185611157565b93506111cc83611168565b8060005b838110156111fd5781516111e48882611187565b97506111ef8361119f565b9250506001810190506111d0565b5085935050505092915050565b6000602082019050818103600083015261122481846111ac565b905092915050565b6000611237826110f0565b9050919050565b6112478161122c565b82525050565b6000602082019050611262600083018461123e565b92915050565b60008115159050919050565b61127d81611268565b82525050565b60006040820190506112986000830185611274565b6112a56020830184611274565b9392505050565b600081519050919050565b600082825260208201905092915050565b6000819050602082019050919050565b6112e181610e9a565b82525050565b60006112f383836112d8565b60208301905092915050565b6000602082019050919050565b6000611317826112ac565b61132181856112b7565b935061132c836112c8565b8060005b8381101561135d57815161134488826112e7565b975061134f836112ff565b925050600181019050611330565b5085935050505092915050565b600060408201905061137f6000830185611274565b8181036020830152611391818461130c565b90509392505050565b60006040820190506113af600083018561123e565b6113bc602083018461123e565b9392505050565b600082825260208201905092915050565b7f4d7573742068617665206120736f75726365206f662072616e646f6d6e65737360008201527f206265666f72652063686f6f73696e672077696e6e6572000000000000000000602082015250565b60006114306037836113c3565b915061143b826113d4565b604082019050919050565b6000602082019050818103600083015261145f81611423565b9050919050565b7f4e487b7100000000000000000000000000000000000000000000000000000000600052601260045260246000fd5b60006114a082610e9a565b91506114ab83610e9a565b9250826114bb576114ba611466565b5b828206905092915050565b7f4e487b7100000000000000000000000000000000000000000000000000000000600052603260045260246000fd5b7f4e487b7100000000000000000000000000000000000000000000000000000000600052601160045260246000fd5b600061152f82610e9a565b91507fffffffffffffffffffffffffffffffffffffffffffffffffffffffffffffffff821415611562576115616114f5565b5b600182019050919050565b7f72657175657374206e6f7420666f756e64000000000000000000000000000000600082015250565b60006115a36011836113c3565b91506115ae8261156d565b602082019050919050565b600060208201905081810360008301526115d281611596565b9050919050565b6000819050919050565b6115ec816115d9565b82525050565b600067ffffffffffffffff82169050919050565b61160f816115f2565b82525050565b600061ffff82169050919050565b61162c81611615565b82525050565b600063ffffffff82169050919050565b61164b81611632565b82525050565b600060a08201905061166660008301886115e3565b6116736020830187611606565b6116806040830186611623565b61168d6060830185611642565b61169a6080830184611642565b9695505050505050565b6000815190506116b381610ee2565b92915050565b6000602082840312156116cf576116ce610ed8565b5b60006116dd848285016116a4565b91505092915050565b60006040820190506116fb6000830185610ea4565b6117086020830184611642565b9392505050565b60006040820190506117246000830185610ea4565b8181036020830152611736818461130c565b9050939250505056fea264697066735822122075fa04b3eac2b9ed494b6a890df86c7883c7437613be91c1099b02d8e125597764736f6c634300080b0033",
  "immutableReferences": {
    "192": [
      {
        "length": 32,
        "start": 929
      },
      {
        "length": 32,
        "start": 1013
      }
    ]
  },
  "source": "// SPDX-License-Identifier: MIT\r\n// An example of a consumer contract that relies on a subscription for funding.\r\npragma solidity ^0.8.11;\r\n\r\nimport \"@chainlink/contracts/src/v0.8/interfaces/VRFCoordinatorV2Interface.sol\";\r\nimport \"@chainlink/contracts/src/v0.8/VRFConsumerBaseV2.sol\";\r\nimport \"@chainlink/contracts/src/v0.8/ConfirmedOwner.sol\";\r\n\r\n// Reference: https://remix.ethereum.org/#url=https://docs.chain.link/samples/VRF/VRFv2Consumer.sol\r\n// Lines 15-118\r\n\r\n// Reference: https://github.com/jspruance/block-explorer-tutorials/blob/main/apps/Lottery/lottery/contracts/Lottery.sol\r\n// Lines 122-156, lines 20-24\r\n\r\ncontract VRFv2Consumer is VRFConsumerBaseV2 {\r\n    event RequestSent(uint256 requestId, uint32 numWords);\r\n    event RequestFulfilled(uint256 requestId, uint256[] randomWords);\r\n\r\n    // Added code\r\n    address public owner;\r\n    address payable[] public players;\r\n    mapping(uint => address payable) public lotteryHistory;\r\n    uint public lotteryId;\r\n    uint public randomResult;\r\n    // End of addition\r\n\r\n    struct RequestStatus {\r\n        bool fulfilled; // whether the request has been successfully fulfilled\r\n        bool exists; // whether a requestId exists\r\n        uint256[] randomWords;\r\n    }\r\n    mapping(uint256 => RequestStatus)\r\n        public s_requests; /* requestId --> requestStatus */\r\n    VRFCoordinatorV2Interface COORDINATOR;\r\n\r\n    // Your subscription ID.\r\n    uint64 s_subscriptionId;\r\n\r\n    // past requests Id.\r\n    uint256[] public requestIds;\r\n    uint256 public lastRequestId; // same as randomResult\r\n\r\n    bytes32 keyHash =\r\n        0x79d3d8832d904592c0bf9818b621522c988bb8b0c05cdc3b15aea1b6e8db0c15;\r\n\r\n    // Depends on the number of requested values that you want sent to the\r\n    // fulfillRandomWords() function. Storing each word costs about 20,000 gas,\r\n    // so 100,000 is a safe default for this example contract. Test and adjust\r\n    // this limit based on the network that you select, the size of the request,\r\n    // and the processing of the callback request in the fulfillRandomWords()\r\n    // function.\r\n    uint32 callbackGasLimit = 100000;\r\n\r\n    // The default is 3, but you can set this higher.\r\n    uint16 requestConfirmations = 3;\r\n\r\n    // For this example, retrieve 2 random values in one request.\r\n    // Cannot exceed VRFCoordinatorV2.MAX_NUM_WORDS.\r\n    uint32 numWords = 1;\r\n\r\n    /**\r\n     * GOERLI COORDINATOR: 0x2Ca8E0C643bDe4C2E08ab1fA0da3401AdAD7734D\r\n     */\r\n    constructor(\r\n        uint64 subscriptionId\r\n    )\r\n        VRFConsumerBaseV2(0x2Ca8E0C643bDe4C2E08ab1fA0da3401AdAD7734D)\r\n    {\r\n        COORDINATOR = VRFCoordinatorV2Interface(\r\n            0x2Ca8E0C643bDe4C2E08ab1fA0da3401AdAD7734D\r\n        );\r\n        s_subscriptionId = subscriptionId;\r\n        owner = msg.sender;\r\n    }\r\n\r\n    // Assumes the subscription is funded sufficiently.\r\n    function requestRandomWords()\r\n        external\r\n        onlyowner\r\n        returns (uint256 requestId)\r\n    {\r\n        // Will revert if subscription is not set and funded.\r\n        requestId = COORDINATOR.requestRandomWords(\r\n            keyHash,\r\n            s_subscriptionId,\r\n            requestConfirmations,\r\n            callbackGasLimit,\r\n            numWords\r\n        );\r\n        s_requests[requestId] = RequestStatus({\r\n            randomWords: new uint256[](0),\r\n            exists: true,\r\n            fulfilled: false\r\n        });\r\n        requestIds.push(requestId);\r\n        lastRequestId = requestId;\r\n        emit RequestSent(requestId, numWords);\r\n        return requestId;\r\n    }\r\n\r\n    function fulfillRandomWords(\r\n        uint256 _requestId,\r\n        uint256[] memory _randomWords\r\n    ) internal override {\r\n        require(s_requests[_requestId].exists, \"request not found\");\r\n        s_requests[_requestId].fulfilled = true;\r\n        s_requests[_requestId].randomWords = _randomWords;\r\n        randomResult = _randomWords[0];\r\n        emit RequestFulfilled(_requestId, _randomWords);\r\n    }\r\n\r\n    function getRequestStatus(\r\n        uint256 _requestId\r\n    ) external view returns (bool fulfilled, uint256[] memory randomWords) {\r\n        require(s_requests[_requestId].exists, \"request not found\");\r\n        RequestStatus memory request = s_requests[_requestId];\r\n        return (request.fulfilled, request.randomWords);\r\n    }\r\n\r\n    // additions\r\n    // Gets the balance of the contract\r\n    function getBalance() public view returns (uint) {\r\n        return address(this).balance;\r\n    }\r\n\r\n    // Gets everyone entered into the lottery\r\n    function getPlayers() public view returns (address payable[] memory) {\r\n        return players;\r\n    }\r\n\r\n    // Enters everyone into the lottery\r\n    function enter() public payable {\r\n        require(msg.value > .01 ether);\r\n        // address of player entering lottery\r\n        players.push(payable(msg.sender));\r\n    }\r\n\r\n    function payWinner() public onlyowner {\r\n        require(\r\n            randomResult > 0,\r\n            \"Must have a source of randomness before choosing winner\"\r\n        );\r\n        // Run migrations & copy\r\n        uint index = randomResult % players.length;\r\n        players[index].transfer(address(this).balance);\r\n        lotteryHistory[lotteryId] = players[index];\r\n        lotteryId++;\r\n        // reset the state of the contract\r\n        players = new address payable[](0);\r\n    }\r\n\r\n    modifier onlyowner() {\r\n        require(msg.sender == owner);\r\n        _;\r\n    }\r\n}\r\n",
  "sourcePath": "C:\\Users\\Danie\\Documents\\School\\MCS\\Year 3\\Semester 2\\FYP\\Lottery\\lottery\\contracts\\Lottery.sol",
  "compiler": {
    "name": "solc",
    "version": "0.8.11+commit.d7f03943.Emscripten.clang"
  },
  "schemaVersion": "3.4.13",
  "updatedAt": "2023-03-30T20:17:32.398Z",
  "devdoc": {
    "kind": "dev",
    "methods": {},
    "version": 1
  },
  "userdoc": {
    "kind": "user",
    "methods": {
      "constructor": {
        "notice": "GOERLI COORDINATOR: 0x2Ca8E0C643bDe4C2E08ab1fA0da3401AdAD7734D"
      }
    },
    "version": 1
  }
}