{
  "contractName": "VRFv2Consumer10",
  "abi": [
    {
      "inputs": [
        {
          "internalType": "uint64",
          "name": "subscriptionId",
          "type": "uint64"
        }
      ],
      "stateMutability": "nonpayable",
      "type": "constructor"
    },
    {
      "inputs": [
        {
          "internalType": "address",
          "name": "have",
          "type": "address"
        },
        {
          "internalType": "address",
          "name": "want",
          "type": "address"
        }
      ],
      "name": "OnlyCoordinatorCanFulfill",
      "type": "error"
    },
    {
      "anonymous": false,
      "inputs": [
        {
          "indexed": false,
          "internalType": "uint256",
          "name": "requestId",
          "type": "uint256"
        },
        {
          "indexed": false,
          "internalType": "uint256[]",
          "name": "randomWords",
          "type": "uint256[]"
        }
      ],
      "name": "RequestFulfilled",
      "type": "event"
    },
    {
      "anonymous": false,
      "inputs": [
        {
          "indexed": false,
          "internalType": "uint256",
          "name": "requestId",
          "type": "uint256"
        },
        {
          "indexed": false,
          "internalType": "uint32",
          "name": "numWords",
          "type": "uint32"
        }
      ],
      "name": "RequestSent",
      "type": "event"
    },
    {
      "inputs": [],
      "name": "lastRequestId",
      "outputs": [
        {
          "internalType": "uint256",
          "name": "",
          "type": "uint256"
        }
      ],
      "stateMutability": "view",
      "type": "function",
      "constant": true
    },
    {
      "inputs": [
        {
          "internalType": "uint256",
          "name": "",
          "type": "uint256"
        }
      ],
      "name": "lotteryHistory",
      "outputs": [
        {
          "internalType": "address payable",
          "name": "",
          "type": "address"
        }
      ],
      "stateMutability": "view",
      "type": "function",
      "constant": true
    },
    {
      "inputs": [],
      "name": "lotteryId",
      "outputs": [
        {
          "internalType": "uint256",
          "name": "",
          "type": "uint256"
        }
      ],
      "stateMutability": "view",
      "type": "function",
      "constant": true
    },
    {
      "inputs": [],
      "name": "owner",
      "outputs": [
        {
          "internalType": "address",
          "name": "",
          "type": "address"
        }
      ],
      "stateMutability": "view",
      "type": "function",
      "constant": true
    },
    {
      "inputs": [
        {
          "internalType": "uint256",
          "name": "",
          "type": "uint256"
        }
      ],
      "name": "players",
      "outputs": [
        {
          "internalType": "address payable",
          "name": "",
          "type": "address"
        }
      ],
      "stateMutability": "view",
      "type": "function",
      "constant": true
    },
    {
      "inputs": [
        {
          "internalType": "uint256",
          "name": "requestId",
          "type": "uint256"
        },
        {
          "internalType": "uint256[]",
          "name": "randomWords",
          "type": "uint256[]"
        }
      ],
      "name": "rawFulfillRandomWords",
      "outputs": [],
      "stateMutability": "nonpayable",
      "type": "function"
    },
    {
      "inputs": [
        {
          "internalType": "uint256",
          "name": "",
          "type": "uint256"
        }
      ],
      "name": "requestIds",
      "outputs": [
        {
          "internalType": "uint256",
          "name": "",
          "type": "uint256"
        }
      ],
      "stateMutability": "view",
      "type": "function",
      "constant": true
    },
    {
      "inputs": [
        {
          "internalType": "uint256",
          "name": "",
          "type": "uint256"
        }
      ],
      "name": "s_requests",
      "outputs": [
        {
          "internalType": "bool",
          "name": "fulfilled",
          "type": "bool"
        },
        {
          "internalType": "bool",
          "name": "exists",
          "type": "bool"
        }
      ],
      "stateMutability": "view",
      "type": "function",
      "constant": true
    },
    {
      "inputs": [],
      "name": "requestRandomWords",
      "outputs": [
        {
          "internalType": "uint256",
          "name": "requestId",
          "type": "uint256"
        }
      ],
      "stateMutability": "nonpayable",
      "type": "function"
    },
    {
      "inputs": [
        {
          "internalType": "uint256",
          "name": "_requestId",
          "type": "uint256"
        }
      ],
      "name": "getRequestStatus",
      "outputs": [
        {
          "internalType": "bool",
          "name": "fulfilled",
          "type": "bool"
        },
        {
          "internalType": "uint256[]",
          "name": "randomWords",
          "type": "uint256[]"
        }
      ],
      "stateMutability": "view",
      "type": "function",
      "constant": true
    },
    {
      "inputs": [],
      "name": "getBalance",
      "outputs": [
        {
          "internalType": "uint256",
          "name": "",
          "type": "uint256"
        }
      ],
      "stateMutability": "view",
      "type": "function",
      "constant": true
    },
    {
      "inputs": [],
      "name": "getPlayers",
      "outputs": [
        {
          "internalType": "address payable[]",
          "name": "",
          "type": "address[]"
        }
      ],
      "stateMutability": "view",
      "type": "function",
      "constant": true
    },
    {
      "inputs": [],
      "name": "enter",
      "outputs": [],
      "stateMutability": "payable",
      "type": "function",
      "payable": true
    },
    {
      "inputs": [],
      "name": "payWinner",
      "outputs": [],
      "stateMutability": "nonpayable",
      "type": "function"
    }
  ],
  "bytecode": "0x60a06040527f79d3d8832d904592c0bf9818b621522c988bb8b0c05cdc3b15aea1b6e8db0c1560001b60095562061a80600a60006101000a81548163ffffffff021916908363ffffffff1602179055506003600a60046101000a81548161ffff021916908361ffff1602179055506005600a60066101000a81548163ffffffff021916908363ffffffff1602179055503480156200009c57600080fd5b5060405162001a6c38038062001a6c8339818101604052810190620000c291906200021b565b732ca8e0c643bde4c2e08ab1fa0da3401adad7734d8073ffffffffffffffffffffffffffffffffffffffff1660808173ffffffffffffffffffffffffffffffffffffffff168152505050732ca8e0c643bde4c2e08ab1fa0da3401adad7734d600660006101000a81548173ffffffffffffffffffffffffffffffffffffffff021916908373ffffffffffffffffffffffffffffffffffffffff16021790555080600660146101000a81548167ffffffffffffffff021916908367ffffffffffffffff160217905550336000806101000a81548173ffffffffffffffffffffffffffffffffffffffff021916908373ffffffffffffffffffffffffffffffffffffffff160217905550506200024d565b600080fd5b600067ffffffffffffffff82169050919050565b620001f581620001d6565b81146200020157600080fd5b50565b6000815190506200021581620001ea565b92915050565b600060208284031215620002345762000233620001d1565b5b6000620002448482850162000204565b91505092915050565b6080516117fc620002706000396000818161036b01526103bf01526117fc6000f3fe6080604052600436106100dd5760003560e01c8063be71248a1161007f578063e580f47b11610059578063e580f47b146102c4578063e97dcb62146102ef578063f71d96cb146102f9578063fc2a88c314610336576100dd565b8063be71248a14610244578063d8a4676f1461025b578063e0c8628914610299576100dd565b80638796ba8c116100bb5780638796ba8c146101735780638b5b9ccc146101b05780638da5cb5b146101db578063a168fa8914610206576100dd565b806312065fe0146100e25780631fe543e31461010d5780636d6fe23014610136575b600080fd5b3480156100ee57600080fd5b506100f7610361565b6040516101049190610ee4565b60405180910390f35b34801561011957600080fd5b50610134600480360381019061012f9190611098565b610369565b005b34801561014257600080fd5b5061015d600480360381019061015891906110f4565b610429565b60405161016a9190611162565b60405180910390f35b34801561017f57600080fd5b5061019a600480360381019061019591906110f4565b61045c565b6040516101a79190610ee4565b60405180910390f35b3480156101bc57600080fd5b506101c5610480565b6040516101d2919061123b565b60405180910390f35b3480156101e757600080fd5b506101f061050e565b6040516101fd919061127e565b60405180910390f35b34801561021257600080fd5b5061022d600480360381019061022891906110f4565b610532565b60405161023b9291906112b4565b60405180910390f35b34801561025057600080fd5b50610259610570565b005b34801561026757600080fd5b50610282600480360381019061027d91906110f4565b61082e565b60405161029092919061139b565b60405180910390f35b3480156102a557600080fd5b506102ae610959565b6040516102bb9190610ee4565b60405180910390f35b3480156102d057600080fd5b506102d9610c03565b6040516102e69190610ee4565b60405180910390f35b6102f7610c09565b005b34801561030557600080fd5b50610320600480360381019061031b91906110f4565b610c81565b60405161032d9190611162565b60405180910390f35b34801561034257600080fd5b5061034b610cc0565b6040516103589190610ee4565b60405180910390f35b600047905090565b7f000000000000000000000000000000000000000000000000000000000000000073ffffffffffffffffffffffffffffffffffffffff163373ffffffffffffffffffffffffffffffffffffffff161461041b57337f00000000000000000000000000000000000000000000000000000000000000006040517f1cf993f40000000000000000000000000000000000000000000000000000000081526004016104129291906113cb565b60405180910390fd5b6104258282610cc6565b5050565b60026020528060005260406000206000915054906101000a900473ffffffffffffffffffffffffffffffffffffffff1681565b6007818154811061046c57600080fd5b906000526020600020016000915090505481565b6060600180548060200260200160405190810160405280929190818152602001828054801561050457602002820191906000526020600020905b8160009054906101000a900473ffffffffffffffffffffffffffffffffffffffff1673ffffffffffffffffffffffffffffffffffffffff16815260200190600101908083116104ba575b5050505050905090565b60008054906101000a900473ffffffffffffffffffffffffffffffffffffffff1681565b60056020528060005260406000206000915090508060000160009054906101000a900460ff16908060000160019054906101000a900460ff16905082565b60008054906101000a900473ffffffffffffffffffffffffffffffffffffffff1673ffffffffffffffffffffffffffffffffffffffff163373ffffffffffffffffffffffffffffffffffffffff16146105c857600080fd5b60056000600854815260200190815260200160002060000160009054906101000a900460ff1661062d576040517f08c379a000000000000000000000000000000000000000000000000000000000815260040161062490611477565b60405180910390fd5b6000805b60048054905081101561069b576001805490506001805490506004838154811061065e5761065d611497565b5b906000526020600020015461067391906114f5565b8361067e9190611555565b61068891906114f5565b915080610694906115ab565b9050610631565b50600181815481106106b0576106af611497565b5b9060005260206000200160009054906101000a900473ffffffffffffffffffffffffffffffffffffffff1673ffffffffffffffffffffffffffffffffffffffff166108fc479081150290604051600060405180830381858888f19350505050158015610720573d6000803e3d6000fd5b506001818154811061073557610734611497565b5b9060005260206000200160009054906101000a900473ffffffffffffffffffffffffffffffffffffffff1660026000600354815260200190815260200160002060006101000a81548173ffffffffffffffffffffffffffffffffffffffff021916908373ffffffffffffffffffffffffffffffffffffffff160217905550600360008154809291906107c6906115ab565b9190505550600067ffffffffffffffff8111156107e6576107e5610f55565b5b6040519080825280602002602001820160405280156108145781602001602082028036833780820191505090505b506001908051906020019061082a929190610dd7565b5050565b600060606005600084815260200190815260200160002060000160019054906101000a900460ff16610895576040517f08c379a000000000000000000000000000000000000000000000000000000000815260040161088c90611640565b60405180910390fd5b6000600560008581526020019081526020016000206040518060600160405290816000820160009054906101000a900460ff161515151581526020016000820160019054906101000a900460ff161515151581526020016001820180548060200260200160405190810160405280929190818152602001828054801561093a57602002820191906000526020600020905b815481526020019060010190808311610926575b5050505050815250509050806000015181604001519250925050915091565b60008060009054906101000a900473ffffffffffffffffffffffffffffffffffffffff1673ffffffffffffffffffffffffffffffffffffffff163373ffffffffffffffffffffffffffffffffffffffff16146109b457600080fd5b600660009054906101000a900473ffffffffffffffffffffffffffffffffffffffff1673ffffffffffffffffffffffffffffffffffffffff16635d3b1d30600954600660149054906101000a900467ffffffffffffffff16600a60049054906101000a900461ffff16600a60009054906101000a900463ffffffff16600a60069054906101000a900463ffffffff166040518663ffffffff1660e01b8152600401610a639594939291906116d8565b6020604051808303816000875af1158015610a82573d6000803e3d6000fd5b505050506040513d601f19601f82011682018060405250810190610aa69190611740565b90506040518060600160405280600015158152602001600115158152602001600067ffffffffffffffff811115610ae057610adf610f55565b5b604051908082528060200260200182016040528015610b0e5781602001602082028036833780820191505090505b508152506005600083815260200190815260200160002060008201518160000160006101000a81548160ff02191690831515021790555060208201518160000160016101000a81548160ff0219169083151502179055506040820151816001019080519060200190610b81929190610e61565b509050506007819080600181540180825580915050600190039060005260206000200160009091909190915055806008819055507fcc58b13ad3eab50626c6a6300b1d139cd6ebb1688a7cced9461c2f7e762665ee81600a60069054906101000a900463ffffffff16604051610bf892919061176d565b60405180910390a190565b60035481565b662386f26fc100003411610c1c57600080fd5b6001339080600181540180825580915050600190039060005260206000200160009091909190916101000a81548173ffffffffffffffffffffffffffffffffffffffff021916908373ffffffffffffffffffffffffffffffffffffffff160217905550565b60018181548110610c9157600080fd5b906000526020600020016000915054906101000a900473ffffffffffffffffffffffffffffffffffffffff1681565b60085481565b6005600083815260200190815260200160002060000160019054906101000a900460ff16610d29576040517f08c379a0000000000000000000000000000000000000000000000000000000008152600401610d2090611640565b60405180910390fd5b60016005600084815260200190815260200160002060000160006101000a81548160ff02191690831515021790555080600560008481526020019081526020016000206001019080519060200190610d82929190610e61565b508060049080519060200190610d99929190610e61565b507ffe2e2d779dba245964d4e3ef9b994be63856fd568bf7d3ca9e224755cb1bd54d8282604051610dcb929190611796565b60405180910390a15050565b828054828255906000526020600020908101928215610e50579160200282015b82811115610e4f5782518260006101000a81548173ffffffffffffffffffffffffffffffffffffffff021916908373ffffffffffffffffffffffffffffffffffffffff16021790555091602001919060010190610df7565b5b509050610e5d9190610eae565b5090565b828054828255906000526020600020908101928215610e9d579160200282015b82811115610e9c578251825591602001919060010190610e81565b5b509050610eaa9190610eae565b5090565b5b80821115610ec7576000816000905550600101610eaf565b5090565b6000819050919050565b610ede81610ecb565b82525050565b6000602082019050610ef96000830184610ed5565b92915050565b6000604051905090565b600080fd5b600080fd5b610f1c81610ecb565b8114610f2757600080fd5b50565b600081359050610f3981610f13565b92915050565b600080fd5b6000601f19601f8301169050919050565b7f4e487b7100000000000000000000000000000000000000000000000000000000600052604160045260246000fd5b610f8d82610f44565b810181811067ffffffffffffffff82111715610fac57610fab610f55565b5b80604052505050565b6000610fbf610eff565b9050610fcb8282610f84565b919050565b600067ffffffffffffffff821115610feb57610fea610f55565b5b602082029050602081019050919050565b600080fd5b600061101461100f84610fd0565b610fb5565b9050808382526020820190506020840283018581111561103757611036610ffc565b5b835b81811015611060578061104c8882610f2a565b845260208401935050602081019050611039565b5050509392505050565b600082601f83011261107f5761107e610f3f565b5b813561108f848260208601611001565b91505092915050565b600080604083850312156110af576110ae610f09565b5b60006110bd85828601610f2a565b925050602083013567ffffffffffffffff8111156110de576110dd610f0e565b5b6110ea8582860161106a565b9150509250929050565b60006020828403121561110a57611109610f09565b5b600061111884828501610f2a565b91505092915050565b600073ffffffffffffffffffffffffffffffffffffffff82169050919050565b600061114c82611121565b9050919050565b61115c81611141565b82525050565b60006020820190506111776000830184611153565b92915050565b600081519050919050565b600082825260208201905092915050565b6000819050602082019050919050565b6111b281611141565b82525050565b60006111c483836111a9565b60208301905092915050565b6000602082019050919050565b60006111e88261117d565b6111f28185611188565b93506111fd83611199565b8060005b8381101561122e57815161121588826111b8565b9750611220836111d0565b925050600181019050611201565b5085935050505092915050565b6000602082019050818103600083015261125581846111dd565b905092915050565b600061126882611121565b9050919050565b6112788161125d565b82525050565b6000602082019050611293600083018461126f565b92915050565b60008115159050919050565b6112ae81611299565b82525050565b60006040820190506112c960008301856112a5565b6112d660208301846112a5565b9392505050565b600081519050919050565b600082825260208201905092915050565b6000819050602082019050919050565b61131281610ecb565b82525050565b60006113248383611309565b60208301905092915050565b6000602082019050919050565b6000611348826112dd565b61135281856112e8565b935061135d836112f9565b8060005b8381101561138e5781516113758882611318565b975061138083611330565b925050600181019050611361565b5085935050505092915050565b60006040820190506113b060008301856112a5565b81810360208301526113c2818461133d565b90509392505050565b60006040820190506113e0600083018561126f565b6113ed602083018461126f565b9392505050565b600082825260208201905092915050565b7f4d757374206861766520612031302072616e646f6d20776f726473206265666f60008201527f72652063686f6f73696e672077696e6e65720000000000000000000000000000602082015250565b60006114616032836113f4565b915061146c82611405565b604082019050919050565b6000602082019050818103600083015261149081611454565b9050919050565b7f4e487b7100000000000000000000000000000000000000000000000000000000600052603260045260246000fd5b7f4e487b7100000000000000000000000000000000000000000000000000000000600052601260045260246000fd5b600061150082610ecb565b915061150b83610ecb565b92508261151b5761151a6114c6565b5b828206905092915050565b7f4e487b7100000000000000000000000000000000000000000000000000000000600052601160045260246000fd5b600061156082610ecb565b915061156b83610ecb565b9250827fffffffffffffffffffffffffffffffffffffffffffffffffffffffffffffffff038211156115a05761159f611526565b5b828201905092915050565b60006115b682610ecb565b91507fffffffffffffffffffffffffffffffffffffffffffffffffffffffffffffffff8214156115e9576115e8611526565b5b600182019050919050565b7f72657175657374206e6f7420666f756e64000000000000000000000000000000600082015250565b600061162a6011836113f4565b9150611635826115f4565b602082019050919050565b600060208201905081810360008301526116598161161d565b9050919050565b6000819050919050565b61167381611660565b82525050565b600067ffffffffffffffff82169050919050565b61169681611679565b82525050565b600061ffff82169050919050565b6116b38161169c565b82525050565b600063ffffffff82169050919050565b6116d2816116b9565b82525050565b600060a0820190506116ed600083018861166a565b6116fa602083018761168d565b61170760408301866116aa565b61171460608301856116c9565b61172160808301846116c9565b9695505050505050565b60008151905061173a81610f13565b92915050565b60006020828403121561175657611755610f09565b5b60006117648482850161172b565b91505092915050565b60006040820190506117826000830185610ed5565b61178f60208301846116c9565b9392505050565b60006040820190506117ab6000830185610ed5565b81810360208301526117bd818461133d565b9050939250505056fea2646970667358221220902f0fef04671a807941df7a2d17bff947ddef41576bf4acb08112ee3f15d04864736f6c634300080b0033",
  "immutableReferences": {
    "192": [
      {
        "length": 32,
        "start": 875
      },
      {
        "length": 32,
        "start": 959
      }
    ]
  },
  "source": "// SPDX-License-Identifier: MIT\r\n// An example of a consumer contract that relies on a subscription for funding.\r\n\r\n// Reference: https://remix.ethereum.org/#url=https://docs.chain.link/samples/VRF/VRFv2Consumer.sol\r\n// Lines 5-115\r\n\r\n// Reference: https://github.com/jspruance/block-explorer-tutorials/blob/main/apps/Lottery/lottery/contracts/Lottery.sol\r\n// Lines 122-165\r\npragma solidity ^0.8.11;\r\n\r\nimport \"@chainlink/contracts/src/v0.8/interfaces/VRFCoordinatorV2Interface.sol\";\r\nimport \"@chainlink/contracts/src/v0.8/VRFConsumerBaseV2.sol\";\r\nimport \"@chainlink/contracts/src/v0.8/ConfirmedOwner.sol\";\r\n\r\ncontract VRFv2Consumer10 is VRFConsumerBaseV2 {\r\n    event RequestSent(uint256 requestId, uint32 numWords);\r\n    event RequestFulfilled(uint256 requestId, uint256[] randomWords);\r\n\r\n    // Added code\r\n    address public owner;\r\n    address payable[] public players;\r\n    mapping(uint => address payable) public lotteryHistory;\r\n    uint public lotteryId;\r\n    uint256[] random;\r\n    // End of addition\r\n\r\n    struct RequestStatus {\r\n        bool fulfilled; // whether the request has been successfully fulfilled\r\n        bool exists; // whether a requestId exists\r\n        uint256[] randomWords;\r\n    }\r\n    mapping(uint256 => RequestStatus)\r\n        public s_requests; /* requestId --> requestStatus */\r\n    VRFCoordinatorV2Interface COORDINATOR;\r\n\r\n    // Your subscription ID.\r\n    uint64 s_subscriptionId;\r\n\r\n    // past requests Id.\r\n    uint256[] public requestIds;\r\n    uint256 public lastRequestId; // same as randomResult\r\n\r\n    bytes32 keyHash =\r\n        0x79d3d8832d904592c0bf9818b621522c988bb8b0c05cdc3b15aea1b6e8db0c15;\r\n\r\n    // Depends on the number of requested values that you want sent to the\r\n    // fulfillRandomWords() function. Storing each word costs about 20,000 gas,\r\n    // so 100,000 is a safe default for this example contract. Test and adjust\r\n    // this limit based on the network that you select, the size of the request,\r\n    // and the processing of the callback request in the fulfillRandomWords()\r\n    // function.\r\n    uint32 callbackGasLimit = 400000;\r\n\r\n    // The default is 3, but you can set this higher.\r\n    uint16 requestConfirmations = 3;\r\n\r\n    // For this example, retrieve 2 random values in one request.\r\n    // Cannot exceed VRFCoordinatorV2.MAX_NUM_WORDS.\r\n    uint32 numWords = 5;\r\n\r\n    /**\r\n     * GOERLI COORDINATOR: 0x2Ca8E0C643bDe4C2E08ab1fA0da3401AdAD7734D\r\n     */\r\n    constructor(\r\n        uint64 subscriptionId\r\n    )\r\n        VRFConsumerBaseV2(0x2Ca8E0C643bDe4C2E08ab1fA0da3401AdAD7734D)\r\n    {\r\n        COORDINATOR = VRFCoordinatorV2Interface(\r\n            0x2Ca8E0C643bDe4C2E08ab1fA0da3401AdAD7734D\r\n        );\r\n        s_subscriptionId = subscriptionId;\r\n        owner = msg.sender;\r\n    }\r\n\r\n    // Assumes the subscription is funded sufficiently.\r\n    function requestRandomWords()\r\n        external\r\n        onlyowner\r\n        returns (uint256 requestId)\r\n    {\r\n        // Will revert if subscription is not set and funded.\r\n        requestId = COORDINATOR.requestRandomWords(\r\n            keyHash,\r\n            s_subscriptionId,\r\n            requestConfirmations,\r\n            callbackGasLimit,\r\n            numWords\r\n        );\r\n        s_requests[requestId] = RequestStatus({\r\n            randomWords: new uint256[](0),\r\n            exists: true,\r\n            fulfilled: false\r\n        });\r\n        requestIds.push(requestId);\r\n        lastRequestId = requestId;\r\n        emit RequestSent(requestId, numWords);\r\n        return requestId;\r\n    }\r\n\r\n    function fulfillRandomWords(\r\n        uint256 _requestId,\r\n        uint256[] memory _randomWords\r\n    ) internal override {\r\n        require(s_requests[_requestId].exists, \"request not found\");\r\n        s_requests[_requestId].fulfilled = true;\r\n        s_requests[_requestId].randomWords = _randomWords;\r\n        random = _randomWords;\r\n        emit RequestFulfilled(_requestId, _randomWords);\r\n    }\r\n\r\n    function getRequestStatus(\r\n        uint256 _requestId\r\n    ) external view returns (bool fulfilled, uint256[] memory randomWords) {\r\n        require(s_requests[_requestId].exists, \"request not found\");\r\n        RequestStatus memory request = s_requests[_requestId];\r\n        return (request.fulfilled, request.randomWords);\r\n    }\r\n\r\n    // additions\r\n    // Gets the balance of the contract\r\n    function getBalance() public view returns (uint) {\r\n        return address(this).balance;\r\n    }\r\n\r\n    // Gets everyone entered into the lottery\r\n    function getPlayers() public view returns (address payable[] memory) {\r\n        return players;\r\n    }\r\n\r\n    // Enters everyone into the lottery\r\n    function enter() public payable {\r\n        require(msg.value > .01 ether);\r\n        // address of player entering lottery\r\n        players.push(payable(msg.sender));\r\n    }\r\n\r\n    function payWinner() public onlyowner {\r\n        // Ensure that randomResult is different each time or the same index in the array\r\n        // always wins\r\n        // The require statement only works for the 1st time, after that it is the same\r\n        require(\r\n            s_requests[lastRequestId].fulfilled,\r\n            \"Must have a 10 random words before choosing winner\"\r\n        );\r\n        \r\n        // Initialise index to 0\r\n        uint index = 0;\r\n        // Loop over random words generated\r\n        for (uint i = 0; i < random.length; ++i){\r\n            index = (index + (random[i] % players.length)) % players.length;\r\n        }\r\n        // Run migrations & copy\r\n        players[index].transfer(address(this).balance);\r\n        lotteryHistory[lotteryId] = players[index];\r\n        lotteryId++;\r\n        // reset the state of the contract\r\n        players = new address payable[](0);\r\n    }\r\n\r\n    modifier onlyowner() {\r\n        require(msg.sender == owner);\r\n        _;\r\n    }\r\n}\r\n",
  "sourcePath": "C:\\Users\\Danie\\Documents\\School\\MCS\\Year 3\\Semester 2\\FYP\\Lottery\\lottery\\contracts\\Lottery1.sol",
  "compiler": {
    "name": "solc",
    "version": "0.8.11+commit.d7f03943.Emscripten.clang"
  },
  "schemaVersion": "3.4.13",
  "updatedAt": "2023-04-11T16:51:50.091Z",
  "networkType": "ethereum",
  "devdoc": {
    "kind": "dev",
    "methods": {},
    "version": 1
  },
  "userdoc": {
    "kind": "user",
    "methods": {
      "constructor": {
        "notice": "GOERLI COORDINATOR: 0x2Ca8E0C643bDe4C2E08ab1fA0da3401AdAD7734D"
      }
    },
    "version": 1
  }
}