{
  "contractName": "VRFv2Consumer10",
  "abi": [
    {
      "inputs": [
        {
          "internalType": "uint64",
          "name": "subscriptionId",
          "type": "uint64"
        }
      ],
      "stateMutability": "nonpayable",
      "type": "constructor"
    },
    {
      "inputs": [
        {
          "internalType": "address",
          "name": "have",
          "type": "address"
        },
        {
          "internalType": "address",
          "name": "want",
          "type": "address"
        }
      ],
      "name": "OnlyCoordinatorCanFulfill",
      "type": "error"
    },
    {
      "anonymous": false,
      "inputs": [
        {
          "indexed": false,
          "internalType": "uint256",
          "name": "requestId",
          "type": "uint256"
        },
        {
          "indexed": false,
          "internalType": "uint256[]",
          "name": "randomWords",
          "type": "uint256[]"
        }
      ],
      "name": "RequestFulfilled",
      "type": "event"
    },
    {
      "anonymous": false,
      "inputs": [
        {
          "indexed": false,
          "internalType": "uint256",
          "name": "requestId",
          "type": "uint256"
        },
        {
          "indexed": false,
          "internalType": "uint32",
          "name": "numWords",
          "type": "uint32"
        }
      ],
      "name": "RequestSent",
      "type": "event"
    },
    {
      "inputs": [],
      "name": "lastRequestId",
      "outputs": [
        {
          "internalType": "uint256",
          "name": "",
          "type": "uint256"
        }
      ],
      "stateMutability": "view",
      "type": "function",
      "constant": true
    },
    {
      "inputs": [
        {
          "internalType": "uint256",
          "name": "",
          "type": "uint256"
        }
      ],
      "name": "lotteryHistory",
      "outputs": [
        {
          "internalType": "address payable",
          "name": "",
          "type": "address"
        }
      ],
      "stateMutability": "view",
      "type": "function",
      "constant": true
    },
    {
      "inputs": [],
      "name": "lotteryId",
      "outputs": [
        {
          "internalType": "uint256",
          "name": "",
          "type": "uint256"
        }
      ],
      "stateMutability": "view",
      "type": "function",
      "constant": true
    },
    {
      "inputs": [],
      "name": "owner",
      "outputs": [
        {
          "internalType": "address",
          "name": "",
          "type": "address"
        }
      ],
      "stateMutability": "view",
      "type": "function",
      "constant": true
    },
    {
      "inputs": [
        {
          "internalType": "uint256",
          "name": "",
          "type": "uint256"
        }
      ],
      "name": "players",
      "outputs": [
        {
          "internalType": "address payable",
          "name": "",
          "type": "address"
        }
      ],
      "stateMutability": "view",
      "type": "function",
      "constant": true
    },
    {
      "inputs": [],
      "name": "randomResult",
      "outputs": [
        {
          "internalType": "uint256",
          "name": "",
          "type": "uint256"
        }
      ],
      "stateMutability": "view",
      "type": "function",
      "constant": true
    },
    {
      "inputs": [
        {
          "internalType": "uint256",
          "name": "requestId",
          "type": "uint256"
        },
        {
          "internalType": "uint256[]",
          "name": "randomWords",
          "type": "uint256[]"
        }
      ],
      "name": "rawFulfillRandomWords",
      "outputs": [],
      "stateMutability": "nonpayable",
      "type": "function"
    },
    {
      "inputs": [
        {
          "internalType": "uint256",
          "name": "",
          "type": "uint256"
        }
      ],
      "name": "requestIds",
      "outputs": [
        {
          "internalType": "uint256",
          "name": "",
          "type": "uint256"
        }
      ],
      "stateMutability": "view",
      "type": "function",
      "constant": true
    },
    {
      "inputs": [
        {
          "internalType": "uint256",
          "name": "",
          "type": "uint256"
        }
      ],
      "name": "s_requests",
      "outputs": [
        {
          "internalType": "bool",
          "name": "fulfilled",
          "type": "bool"
        },
        {
          "internalType": "bool",
          "name": "exists",
          "type": "bool"
        }
      ],
      "stateMutability": "view",
      "type": "function",
      "constant": true
    },
    {
      "inputs": [],
      "name": "requestRandomWords",
      "outputs": [
        {
          "internalType": "uint256",
          "name": "requestId",
          "type": "uint256"
        }
      ],
      "stateMutability": "nonpayable",
      "type": "function"
    },
    {
      "inputs": [
        {
          "internalType": "uint256",
          "name": "_requestId",
          "type": "uint256"
        }
      ],
      "name": "getRequestStatus",
      "outputs": [
        {
          "internalType": "bool",
          "name": "fulfilled",
          "type": "bool"
        },
        {
          "internalType": "uint256[]",
          "name": "randomWords",
          "type": "uint256[]"
        }
      ],
      "stateMutability": "view",
      "type": "function",
      "constant": true
    },
    {
      "inputs": [],
      "name": "getBalance",
      "outputs": [
        {
          "internalType": "uint256",
          "name": "",
          "type": "uint256"
        }
      ],
      "stateMutability": "view",
      "type": "function",
      "constant": true
    },
    {
      "inputs": [],
      "name": "getPlayers",
      "outputs": [
        {
          "internalType": "address payable[]",
          "name": "",
          "type": "address[]"
        }
      ],
      "stateMutability": "view",
      "type": "function",
      "constant": true
    },
    {
      "inputs": [],
      "name": "enter",
      "outputs": [],
      "stateMutability": "payable",
      "type": "function",
      "payable": true
    },
    {
      "inputs": [],
      "name": "payWinner",
      "outputs": [],
      "stateMutability": "nonpayable",
      "type": "function"
    }
  ],
  "bytecode": "0x60a06040527f79d3d8832d904592c0bf9818b621522c988bb8b0c05cdc3b15aea1b6e8db0c1560001b600a5562061a80600b60006101000a81548163ffffffff021916908363ffffffff1602179055506003600b60046101000a81548161ffff021916908361ffff1602179055506005600b60066101000a81548163ffffffff021916908363ffffffff1602179055503480156200009c57600080fd5b5060405162001aca38038062001aca8339818101604052810190620000c291906200021b565b732ca8e0c643bde4c2e08ab1fa0da3401adad7734d8073ffffffffffffffffffffffffffffffffffffffff1660808173ffffffffffffffffffffffffffffffffffffffff168152505050732ca8e0c643bde4c2e08ab1fa0da3401adad7734d600760006101000a81548173ffffffffffffffffffffffffffffffffffffffff021916908373ffffffffffffffffffffffffffffffffffffffff16021790555080600760146101000a81548167ffffffffffffffff021916908367ffffffffffffffff160217905550336000806101000a81548173ffffffffffffffffffffffffffffffffffffffff021916908373ffffffffffffffffffffffffffffffffffffffff160217905550506200024d565b600080fd5b600067ffffffffffffffff82169050919050565b620001f581620001d6565b81146200020157600080fd5b50565b6000815190506200021581620001ea565b92915050565b600060208284031215620002345762000233620001d1565b5b6000620002448482850162000204565b91505092915050565b60805161185a62000270600039600081816103a101526103f5015261185a6000f3fe6080604052600436106100e85760003560e01c8063a168fa891161008a578063e580f47b11610059578063e580f47b146102fa578063e97dcb6214610325578063f71d96cb1461032f578063fc2a88c31461036c576100e8565b8063a168fa891461023c578063be71248a1461027a578063d8a4676f14610291578063e0c86289146102cf576100e8565b80636d6fe230116100c65780636d6fe2301461016c5780638796ba8c146101a95780638b5b9ccc146101e65780638da5cb5b14610211576100e8565b806312065fe0146100ed5780631fe543e31461011857806342619f6614610141575b600080fd5b3480156100f957600080fd5b50610102610397565b60405161010f9190610f42565b60405180910390f35b34801561012457600080fd5b5061013f600480360381019061013a91906110f6565b61039f565b005b34801561014d57600080fd5b5061015661045f565b6040516101639190610f42565b60405180910390f35b34801561017857600080fd5b50610193600480360381019061018e9190611152565b610465565b6040516101a091906111c0565b60405180910390f35b3480156101b557600080fd5b506101d060048036038101906101cb9190611152565b610498565b6040516101dd9190610f42565b60405180910390f35b3480156101f257600080fd5b506101fb6104bc565b6040516102089190611299565b60405180910390f35b34801561021d57600080fd5b5061022661054a565b60405161023391906112dc565b60405180910390f35b34801561024857600080fd5b50610263600480360381019061025e9190611152565b61056e565b604051610271929190611312565b60405180910390f35b34801561028657600080fd5b5061028f6105ac565b005b34801561029d57600080fd5b506102b860048036038101906102b39190611152565b61086a565b6040516102c69291906113f9565b60405180910390f35b3480156102db57600080fd5b506102e4610995565b6040516102f19190610f42565b60405180910390f35b34801561030657600080fd5b5061030f610c3f565b60405161031c9190610f42565b60405180910390f35b61032d610c45565b005b34801561033b57600080fd5b5061035660048036038101906103519190611152565b610cbd565b60405161036391906111c0565b60405180910390f35b34801561037857600080fd5b50610381610cfc565b60405161038e9190610f42565b60405180910390f35b600047905090565b7f000000000000000000000000000000000000000000000000000000000000000073ffffffffffffffffffffffffffffffffffffffff163373ffffffffffffffffffffffffffffffffffffffff161461045157337f00000000000000000000000000000000000000000000000000000000000000006040517f1cf993f4000000000000000000000000000000000000000000000000000000008152600401610448929190611429565b60405180910390fd5b61045b8282610d02565b5050565b60055481565b60026020528060005260406000206000915054906101000a900473ffffffffffffffffffffffffffffffffffffffff1681565b600881815481106104a857600080fd5b906000526020600020016000915090505481565b6060600180548060200260200160405190810160405280929190818152602001828054801561054057602002820191906000526020600020905b8160009054906101000a900473ffffffffffffffffffffffffffffffffffffffff1673ffffffffffffffffffffffffffffffffffffffff16815260200190600101908083116104f6575b5050505050905090565b60008054906101000a900473ffffffffffffffffffffffffffffffffffffffff1681565b60066020528060005260406000206000915090508060000160009054906101000a900460ff16908060000160019054906101000a900460ff16905082565b60008054906101000a900473ffffffffffffffffffffffffffffffffffffffff1673ffffffffffffffffffffffffffffffffffffffff163373ffffffffffffffffffffffffffffffffffffffff161461060457600080fd5b60066000600954815260200190815260200160002060000160009054906101000a900460ff16610669576040517f08c379a0000000000000000000000000000000000000000000000000000000008152600401610660906114d5565b60405180910390fd5b6000805b6004805490508110156106d7576001805490506001805490506004838154811061069a576106996114f5565b5b90600052602060002001546106af9190611553565b836106ba91906115b3565b6106c49190611553565b9150806106d090611609565b905061066d565b50600181815481106106ec576106eb6114f5565b5b9060005260206000200160009054906101000a900473ffffffffffffffffffffffffffffffffffffffff1673ffffffffffffffffffffffffffffffffffffffff166108fc479081150290604051600060405180830381858888f1935050505015801561075c573d6000803e3d6000fd5b5060018181548110610771576107706114f5565b5b9060005260206000200160009054906101000a900473ffffffffffffffffffffffffffffffffffffffff1660026000600354815260200190815260200160002060006101000a81548173ffffffffffffffffffffffffffffffffffffffff021916908373ffffffffffffffffffffffffffffffffffffffff1602179055506003600081548092919061080290611609565b9190505550600067ffffffffffffffff81111561082257610821610fb3565b5b6040519080825280602002602001820160405280156108505781602001602082028036833780820191505090505b5060019080519060200190610866929190610e35565b5050565b600060606006600084815260200190815260200160002060000160019054906101000a900460ff166108d1576040517f08c379a00000000000000000000000000000000000000000000000000000000081526004016108c89061169e565b60405180910390fd5b6000600660008581526020019081526020016000206040518060600160405290816000820160009054906101000a900460ff161515151581526020016000820160019054906101000a900460ff161515151581526020016001820180548060200260200160405190810160405280929190818152602001828054801561097657602002820191906000526020600020905b815481526020019060010190808311610962575b5050505050815250509050806000015181604001519250925050915091565b60008060009054906101000a900473ffffffffffffffffffffffffffffffffffffffff1673ffffffffffffffffffffffffffffffffffffffff163373ffffffffffffffffffffffffffffffffffffffff16146109f057600080fd5b600760009054906101000a900473ffffffffffffffffffffffffffffffffffffffff1673ffffffffffffffffffffffffffffffffffffffff16635d3b1d30600a54600760149054906101000a900467ffffffffffffffff16600b60049054906101000a900461ffff16600b60009054906101000a900463ffffffff16600b60069054906101000a900463ffffffff166040518663ffffffff1660e01b8152600401610a9f959493929190611736565b6020604051808303816000875af1158015610abe573d6000803e3d6000fd5b505050506040513d601f19601f82011682018060405250810190610ae2919061179e565b90506040518060600160405280600015158152602001600115158152602001600067ffffffffffffffff811115610b1c57610b1b610fb3565b5b604051908082528060200260200182016040528015610b4a5781602001602082028036833780820191505090505b508152506006600083815260200190815260200160002060008201518160000160006101000a81548160ff02191690831515021790555060208201518160000160016101000a81548160ff0219169083151502179055506040820151816001019080519060200190610bbd929190610ebf565b509050506008819080600181540180825580915050600190039060005260206000200160009091909190915055806009819055507fcc58b13ad3eab50626c6a6300b1d139cd6ebb1688a7cced9461c2f7e762665ee81600b60069054906101000a900463ffffffff16604051610c349291906117cb565b60405180910390a190565b60035481565b662386f26fc100003411610c5857600080fd5b6001339080600181540180825580915050600190039060005260206000200160009091909190916101000a81548173ffffffffffffffffffffffffffffffffffffffff021916908373ffffffffffffffffffffffffffffffffffffffff160217905550565b60018181548110610ccd57600080fd5b906000526020600020016000915054906101000a900473ffffffffffffffffffffffffffffffffffffffff1681565b60095481565b6006600083815260200190815260200160002060000160019054906101000a900460ff16610d65576040517f08c379a0000000000000000000000000000000000000000000000000000000008152600401610d5c9061169e565b60405180910390fd5b60016006600084815260200190815260200160002060000160006101000a81548160ff02191690831515021790555080600660008481526020019081526020016000206001019080519060200190610dbe929190610ebf565b5080600081518110610dd357610dd26114f5565b5b60200260200101516005819055508060049080519060200190610df7929190610ebf565b507ffe2e2d779dba245964d4e3ef9b994be63856fd568bf7d3ca9e224755cb1bd54d8282604051610e299291906117f4565b60405180910390a15050565b828054828255906000526020600020908101928215610eae579160200282015b82811115610ead5782518260006101000a81548173ffffffffffffffffffffffffffffffffffffffff021916908373ffffffffffffffffffffffffffffffffffffffff16021790555091602001919060010190610e55565b5b509050610ebb9190610f0c565b5090565b828054828255906000526020600020908101928215610efb579160200282015b82811115610efa578251825591602001919060010190610edf565b5b509050610f089190610f0c565b5090565b5b80821115610f25576000816000905550600101610f0d565b5090565b6000819050919050565b610f3c81610f29565b82525050565b6000602082019050610f576000830184610f33565b92915050565b6000604051905090565b600080fd5b600080fd5b610f7a81610f29565b8114610f8557600080fd5b50565b600081359050610f9781610f71565b92915050565b600080fd5b6000601f19601f8301169050919050565b7f4e487b7100000000000000000000000000000000000000000000000000000000600052604160045260246000fd5b610feb82610fa2565b810181811067ffffffffffffffff8211171561100a57611009610fb3565b5b80604052505050565b600061101d610f5d565b90506110298282610fe2565b919050565b600067ffffffffffffffff82111561104957611048610fb3565b5b602082029050602081019050919050565b600080fd5b600061107261106d8461102e565b611013565b905080838252602082019050602084028301858111156110955761109461105a565b5b835b818110156110be57806110aa8882610f88565b845260208401935050602081019050611097565b5050509392505050565b600082601f8301126110dd576110dc610f9d565b5b81356110ed84826020860161105f565b91505092915050565b6000806040838503121561110d5761110c610f67565b5b600061111b85828601610f88565b925050602083013567ffffffffffffffff81111561113c5761113b610f6c565b5b611148858286016110c8565b9150509250929050565b60006020828403121561116857611167610f67565b5b600061117684828501610f88565b91505092915050565b600073ffffffffffffffffffffffffffffffffffffffff82169050919050565b60006111aa8261117f565b9050919050565b6111ba8161119f565b82525050565b60006020820190506111d560008301846111b1565b92915050565b600081519050919050565b600082825260208201905092915050565b6000819050602082019050919050565b6112108161119f565b82525050565b60006112228383611207565b60208301905092915050565b6000602082019050919050565b6000611246826111db565b61125081856111e6565b935061125b836111f7565b8060005b8381101561128c5781516112738882611216565b975061127e8361122e565b92505060018101905061125f565b5085935050505092915050565b600060208201905081810360008301526112b3818461123b565b905092915050565b60006112c68261117f565b9050919050565b6112d6816112bb565b82525050565b60006020820190506112f160008301846112cd565b92915050565b60008115159050919050565b61130c816112f7565b82525050565b60006040820190506113276000830185611303565b6113346020830184611303565b9392505050565b600081519050919050565b600082825260208201905092915050565b6000819050602082019050919050565b61137081610f29565b82525050565b60006113828383611367565b60208301905092915050565b6000602082019050919050565b60006113a68261133b565b6113b08185611346565b93506113bb83611357565b8060005b838110156113ec5781516113d38882611376565b97506113de8361138e565b9250506001810190506113bf565b5085935050505092915050565b600060408201905061140e6000830185611303565b8181036020830152611420818461139b565b90509392505050565b600060408201905061143e60008301856112cd565b61144b60208301846112cd565b9392505050565b600082825260208201905092915050565b7f4d757374206861766520612031302072616e646f6d20776f726473206265666f60008201527f72652063686f6f73696e672077696e6e65720000000000000000000000000000602082015250565b60006114bf603283611452565b91506114ca82611463565b604082019050919050565b600060208201905081810360008301526114ee816114b2565b9050919050565b7f4e487b7100000000000000000000000000000000000000000000000000000000600052603260045260246000fd5b7f4e487b7100000000000000000000000000000000000000000000000000000000600052601260045260246000fd5b600061155e82610f29565b915061156983610f29565b92508261157957611578611524565b5b828206905092915050565b7f4e487b7100000000000000000000000000000000000000000000000000000000600052601160045260246000fd5b60006115be82610f29565b91506115c983610f29565b9250827fffffffffffffffffffffffffffffffffffffffffffffffffffffffffffffffff038211156115fe576115fd611584565b5b828201905092915050565b600061161482610f29565b91507fffffffffffffffffffffffffffffffffffffffffffffffffffffffffffffffff82141561164757611646611584565b5b600182019050919050565b7f72657175657374206e6f7420666f756e64000000000000000000000000000000600082015250565b6000611688601183611452565b915061169382611652565b602082019050919050565b600060208201905081810360008301526116b78161167b565b9050919050565b6000819050919050565b6116d1816116be565b82525050565b600067ffffffffffffffff82169050919050565b6116f4816116d7565b82525050565b600061ffff82169050919050565b611711816116fa565b82525050565b600063ffffffff82169050919050565b61173081611717565b82525050565b600060a08201905061174b60008301886116c8565b61175860208301876116eb565b6117656040830186611708565b6117726060830185611727565b61177f6080830184611727565b9695505050505050565b60008151905061179881610f71565b92915050565b6000602082840312156117b4576117b3610f67565b5b60006117c284828501611789565b91505092915050565b60006040820190506117e06000830185610f33565b6117ed6020830184611727565b9392505050565b60006040820190506118096000830185610f33565b818103602083015261181b818461139b565b9050939250505056fea2646970667358221220d62e8a61a86301ccaad8c430dbac261ce6e50bd6b65e3113300c358b7881acce64736f6c634300080b0033",
  "immutableReferences": {
    "192": [
      {
        "length": 32,
        "start": 929
      },
      {
        "length": 32,
        "start": 1013
      }
    ]
  },
  "source": "// SPDX-License-Identifier: MIT\r\n// An example of a consumer contract that relies on a subscription for funding.\r\n\r\n// Reference: https://remix.ethereum.org/#url=https://docs.chain.link/samples/VRF/VRFv2Consumer.sol\r\n// Lines 5-115\r\n\r\n// Reference: https://github.com/jspruance/block-explorer-tutorials/blob/main/apps/Lottery/lottery/contracts/Lottery.sol\r\n// Lines 122-165\r\npragma solidity ^0.8.11;\r\n\r\nimport \"@chainlink/contracts/src/v0.8/interfaces/VRFCoordinatorV2Interface.sol\";\r\nimport \"@chainlink/contracts/src/v0.8/VRFConsumerBaseV2.sol\";\r\nimport \"@chainlink/contracts/src/v0.8/ConfirmedOwner.sol\";\r\n\r\ncontract VRFv2Consumer10 is VRFConsumerBaseV2 {\r\n    event RequestSent(uint256 requestId, uint32 numWords);\r\n    event RequestFulfilled(uint256 requestId, uint256[] randomWords);\r\n\r\n    // Added code\r\n    address public owner;\r\n    address payable[] public players;\r\n    mapping(uint => address payable) public lotteryHistory;\r\n    uint public lotteryId;\r\n    uint256[] random;\r\n    uint public randomResult;\r\n    // End of addition\r\n\r\n    struct RequestStatus {\r\n        bool fulfilled; // whether the request has been successfully fulfilled\r\n        bool exists; // whether a requestId exists\r\n        uint256[] randomWords;\r\n    }\r\n    mapping(uint256 => RequestStatus)\r\n        public s_requests; /* requestId --> requestStatus */\r\n    VRFCoordinatorV2Interface COORDINATOR;\r\n\r\n    // Your subscription ID.\r\n    uint64 s_subscriptionId;\r\n\r\n    // past requests Id.\r\n    uint256[] public requestIds;\r\n    uint256 public lastRequestId; // same as randomResult\r\n\r\n    bytes32 keyHash =\r\n        0x79d3d8832d904592c0bf9818b621522c988bb8b0c05cdc3b15aea1b6e8db0c15;\r\n\r\n    // Depends on the number of requested values that you want sent to the\r\n    // fulfillRandomWords() function. Storing each word costs about 20,000 gas,\r\n    // so 100,000 is a safe default for this example contract. Test and adjust\r\n    // this limit based on the network that you select, the size of the request,\r\n    // and the processing of the callback request in the fulfillRandomWords()\r\n    // function.\r\n    uint32 callbackGasLimit = 400000;\r\n\r\n    // The default is 3, but you can set this higher.\r\n    uint16 requestConfirmations = 3;\r\n\r\n    // For this example, retrieve 2 random values in one request.\r\n    // Cannot exceed VRFCoordinatorV2.MAX_NUM_WORDS.\r\n    uint32 numWords = 5;\r\n\r\n    /**\r\n     * GOERLI COORDINATOR: 0x2Ca8E0C643bDe4C2E08ab1fA0da3401AdAD7734D\r\n     */\r\n    constructor(\r\n        uint64 subscriptionId\r\n    )\r\n        VRFConsumerBaseV2(0x2Ca8E0C643bDe4C2E08ab1fA0da3401AdAD7734D)\r\n    {\r\n        COORDINATOR = VRFCoordinatorV2Interface(\r\n            0x2Ca8E0C643bDe4C2E08ab1fA0da3401AdAD7734D\r\n        );\r\n        s_subscriptionId = subscriptionId;\r\n        owner = msg.sender;\r\n    }\r\n\r\n    // Assumes the subscription is funded sufficiently.\r\n    function requestRandomWords()\r\n        external\r\n        onlyowner\r\n        returns (uint256 requestId)\r\n    {\r\n        // Will revert if subscription is not set and funded.\r\n        requestId = COORDINATOR.requestRandomWords(\r\n            keyHash,\r\n            s_subscriptionId,\r\n            requestConfirmations,\r\n            callbackGasLimit,\r\n            numWords\r\n        );\r\n        s_requests[requestId] = RequestStatus({\r\n            randomWords: new uint256[](0),\r\n            exists: true,\r\n            fulfilled: false\r\n        });\r\n        requestIds.push(requestId);\r\n        lastRequestId = requestId;\r\n        emit RequestSent(requestId, numWords);\r\n        return requestId;\r\n    }\r\n\r\n    function fulfillRandomWords(\r\n        uint256 _requestId,\r\n        uint256[] memory _randomWords\r\n    ) internal override {\r\n        require(s_requests[_requestId].exists, \"request not found\");\r\n        s_requests[_requestId].fulfilled = true;\r\n        s_requests[_requestId].randomWords = _randomWords;\r\n        randomResult = _randomWords[0];\r\n        random = _randomWords;\r\n        emit RequestFulfilled(_requestId, _randomWords);\r\n    }\r\n\r\n    function getRequestStatus(\r\n        uint256 _requestId\r\n    ) external view returns (bool fulfilled, uint256[] memory randomWords) {\r\n        require(s_requests[_requestId].exists, \"request not found\");\r\n        RequestStatus memory request = s_requests[_requestId];\r\n        return (request.fulfilled, request.randomWords);\r\n    }\r\n\r\n    // additions\r\n    // Gets the balance of the contract\r\n    function getBalance() public view returns (uint) {\r\n        return address(this).balance;\r\n    }\r\n\r\n    // Gets everyone entered into the lottery\r\n    function getPlayers() public view returns (address payable[] memory) {\r\n        return players;\r\n    }\r\n\r\n    // Enters everyone into the lottery\r\n    function enter() public payable {\r\n        require(msg.value > .01 ether);\r\n        // address of player entering lottery\r\n        players.push(payable(msg.sender));\r\n    }\r\n\r\n    function payWinner() public onlyowner {\r\n        // Ensure that randomResult is different each time or the same index in the array\r\n        // always wins\r\n        // The require statement only works for the 1st time, after that it is the same\r\n        require(\r\n            s_requests[lastRequestId].fulfilled,\r\n            \"Must have a 10 random words before choosing winner\"\r\n        );\r\n        \r\n        // Initialise index to 0\r\n        uint index = 0;\r\n        // Loop over random words generated\r\n        for (uint i = 0; i < random.length; ++i){\r\n            index = (index + (random[i] % players.length)) % players.length;\r\n        }\r\n        // Run migrations & copy\r\n        players[index].transfer(address(this).balance);\r\n        lotteryHistory[lotteryId] = players[index];\r\n        lotteryId++;\r\n        // reset the state of the contract\r\n        players = new address payable[](0);\r\n    }\r\n\r\n    modifier onlyowner() {\r\n        require(msg.sender == owner);\r\n        _;\r\n    }\r\n}\r\n",
  "sourcePath": "C:\\Users\\Danie\\Documents\\School\\MCS\\Year 3\\Semester 2\\FYP\\Lottery\\lottery\\contracts\\Lottery1.sol",
  "compiler": {
    "name": "solc",
    "version": "0.8.11+commit.d7f03943.Emscripten.clang"
  },
  "schemaVersion": "3.4.13",
  "updatedAt": "2023-04-11T18:56:27.879Z",
  "networkType": "ethereum",
  "devdoc": {
    "kind": "dev",
    "methods": {},
    "version": 1
  },
  "userdoc": {
    "kind": "user",
    "methods": {
      "constructor": {
        "notice": "GOERLI COORDINATOR: 0x2Ca8E0C643bDe4C2E08ab1fA0da3401AdAD7734D"
      }
    },
    "version": 1
  }
}